:100000000C9421040C9449040C9449040C94490464
:100010000C9449040C9449040C9449040C9449042C
:100020000C9449040C9449040C9449040C9449041C
:100030000C9449040C9449040C9449040C9449040C
:100040000C94D20A0C9449040C94B60B0C94900BAB
:100050000C9449040C9449040C9449040C944904EC
:100060000C9449040C94490400407A10F35A00A0FF
:10007000724E18090010A5D4E80000E87648170071
:1000800000E40B54020000CA9A3B000000E1F505B1
:10009000000080969800000040420F000000A086FB
:1000A00001000000102700000000E803000000002D
:1000B0006400000000000A000000000001000000D1
:1000C00000002C76D888DC674F0823DFC1DFAE59EB
:1000D000E1B1B796E5E3E453C63AE651997696E87E
:1000E000E6C28426EB898C9B62ED407C6FFCEFBC02
:1000F0009C9F40F2BAA56FA5F490055A2AF75C932D
:100100006B6CF9676DC11BFCE0E40D47FEF520E662
:10011000B500D0ED902E0300943577050080841E45
:10012000080000204E0A000000C80C333333330FA0
:10013000986E12831141EF8D2114893BE65516CF3D
:10014000FEE6DB18D1844B381BF77C1D901DA4BB49
:10015000E424203284725E228100C9F124ECA1E5FE
:100160003D277FFFE0FFFFF0C00030DF0FB0D10878
:10017000B0D108B0DF0FB0C00030C7FE30D801B03A
:10018000C00030FFFFF07FFFE01D55807AABE07DBF
:1001900055E07801E07801E06801606801606C0575
:1001A000606AAB606D55606AAB606FFF60639C60B6
:1001B000039C00039C00039C0007FE007FFFE0FF00
:1001C000FFF0C00030DF0FB0D108B0D108B0DF0FB2
:1001D000B0C00030C00030DFFFB0C00030FFFFF023
:1001E0007FFFE01D55807AABE07D55E07801E07837
:1001F00001E06801606801606C05606AAB606D5584
:10020000606AAB606FFF60639C60039C00039C00AE
:10021000039C0007FE007FFFE0FFFFF0C00030DF1F
:100220000FB0D108B0D108B0DF0FB0C00030D80196
:10023000B0C7FE30C00030FFFFF07FFFE01D5580EB
:100240007AABE07D55E07801E07801E06801606814
:1002500001606C05606AAB606D55606AAB606FFFF2
:1002600060639C60039C00039C00039C0007FE00ED
:100270000FE0101010101010101008100020004097
:1002800000800100010001000100010000000100E8
:1002900000000000000000008001DFFBA005A005B9
:1002A000F555AAAFDFFB8001000000000000000050
:1002B00000007FFEC003A935D34BA915D42BAA5546
:1002C00055AA2A5415A80A5005A002400180000032
:1002D0000550155012E00A700AE817500FE00FF0B1
:1002E0000C300BD00C300BD00C300BD0042003C0E2
:1002F00000000008000201000003040700000000E5
:100300000000000000000000003E5B4F5B3E3E6BC3
:100310004F6B3E1C3E7C3E1C183C7E3C181C577D9F
:10032000571C1C5E7F5E1C00183C1800FFE7C3E7EB
:10033000FF0018241800FFE7DBE7FF30483A060EFD
:100340002629792926407F050507407F05253F5A44
:100350003CE73C5A7F3E1C1C08081C1C3E7F1422B4
:100360007F22145F5F005F5F06097F017F0066895F
:10037000956A606060606094A2FFA29408047E04A5
:100380000810207E201008082A1C08081C2A0808CB
:100390001E101010100C1E0C1E0C30383E3830068B
:1003A0000E3E0E06000000000000005F0000000787
:1003B000000700147F147F14242A7F2A12231308B5
:1003C000646236495620500008070300001C224191
:1003D000000041221C002A1C7F1C2A08083E080835
:1003E00000807030000808080808000060600020E5
:1003F000100804023E5149453E00427F40007249C8
:100400004949462141494D331814127F102745456B
:1004100045393C4A49493141211109073649494981
:1004200036464949291E00001400000040340000EF
:100430000008142241141414141400412214080258
:10044000015909063E415D594E7C1211127C7F49CB
:100450004949363E414141227F4141413E7F494920
:1004600049417F090909013E414151737F0808084C
:100470007F00417F41002040413F017F081422411D
:100480007F404040407F021C027F7F0408107F3E77
:100490004141413E7F090909063E4151215E7F09E4
:1004A000192946264949493203017F01033F40404B
:1004B000403F1F2040201F3F4038403F6314081436
:1004C0006303047804036159494D43007F4141416E
:1004D0000204081020004141417F0402010204404F
:1004E00040404040000307080020545478407F28D3
:1004F0004444383844444428384444287F385454C9
:10050000541800087E090218A4A49C787F080404EB
:100510007800447D40002040403D007F102844008A
:1005200000417F40007C047804787C08040478381B
:1005300044444438FC1824241818242418FC7C084B
:10054000040408485454542404043F44243C4040C8
:10055000207C1C2040201C3C4030403C442810287B
:10056000444C9090907C4464544C440008364100C4
:100570000000770000004136080002010204023C3E
:100580002623263C1EA1A161123A4040207A38540D
:100590005455592155557941225454784221555486
:1005A000784020545579400C1E52721239555555D9
:1005B00059395454545939555454580000457C41C4
:1005C0000002457D420001457C407D1211127DF004
:1005D000282528F07C545545002054547C547C0A2E
:1005E000097F4932494949323A4444443A324A48F7
:1005F00048303A4141217A3A42402078009DA0A0FB
:100600007D3D4242423D3D4040403D3C24FF24244C
:10061000487E4943662B2FFC2F2BFF0929F620C06B
:10062000887E090320545479410000447D413048BC
:10063000484A32384040227A007A0A0A727D0D19FF
:10064000317D2629292F28262929292630484D4061
:1006500020380808080808080808382F10C8ACBA5D
:100660002F102834FA00007B000008142A142222DC
:10067000142A14085500550055AA55AA55AAFF5525
:10068000FF55FF000000FF00101010FF00141414AD
:10069000FF001010FF00FF1010F010F0141414FCF5
:1006A000001414F700FF0000FF00FF1414F404FC12
:1006B000141417101F10101F101F1414141F0010F3
:1006C0001010F0000000001F101010101F1010106C
:1006D00010F010000000FF1010101010101010107B
:1006E000FF10000000FF140000FF00FF00001F10BB
:1006F000170000FC04F414141710171414F404F475
:100700000000FF00F714141414141414F700F71465
:100710001414171410101F101F141414F4141010B4
:10072000F010F000001F101F0000001F1400000058
:10073000FC140000F010F01010FF10FF141414FF50
:10074000141010101F00000000F010FFFFFFFFFF4B
:10075000F0F0F0F0F0FFFFFF0000000000FFFF0FDF
:100760000F0F0F0F3844443844FC4A4A4A347E0283
:10077000020606027E027E02635549416338444404
:100780003C04407E201E2006027E020299A5E7A5B9
:10079000991C2A492A1C4C7201724C304A4D4D302A
:1007A0003048784830BC625A463D3E494949007E4F
:1007B0000101017E2A2A2A2A2A44445F44444051E6
:1007C0004A444040444A51400000FF0103E080FF9A
:1007D000000008086B6B083612362436060F090F26
:1007E00006000018180000001010003040FF010142
:1007F000001F01011E00191D1712003C3C3C3C006B
:100800000000000000000000250028002B00000070
:100810000000240027002A00040404040404040443
:10082000020202020202030303030303010204089B
:10083000102040800102040810200102040810204A
:10084000641411241FBECFEFD8E0DEBFCDBF25E07A
:10085000A6E5B4E001C01D92A53DB207E1F714E0A2
:10086000A0E0B1E0E4EBF9E302C005900D92A635FB
:10087000B107D9F714E0C1E2D4E004C02197FE012A
:100880000E94BC19C032D107C9F70E94F8100C941D
:10089000D81C0C940000CF92DF92EF92FF920F933E
:1008A0001F93CF93DF936C017A018B01C0E0D0E0FE
:1008B000CE15DF0581F0D8016D918D01D601ED9146
:1008C000FC910190F081E02DC6010995892B11F072
:1008D0002196EECF7E01C701DF91CF911F910F913D
:1008E000FF90EF90DF90CF900895FC01538D448DE1
:1008F000252F30E0842F90E0821B930B541710F0CB
:10090000CF96089501970895FC01918D828D9817D7
:1009100061F0828DDF01A80FB11D5D968C91928DE3
:100920009F5F9F73928F90E008958FEF9FEF0895E0
:10093000FC01918D828D981731F0828DE80FF11DA9
:10094000858D90E008958FEF9FEF0895FC01918DC4
:10095000228D892F90E0805C9F4F821B91098F73BD
:10096000992708958CE594E00E94A60421E0892B44
:1009700009F420E0822F0895FC01848DDF01A80F87
:10098000B11DA35ABF4F2C91848D90E001968F73B7
:100990009927848FA689B7892C93A089B1898C91D6
:1009A000837080648C93938D848D981306C0028825
:1009B000F389E02D80818F7D80830895EF92FF92EF
:1009C0000F931F93CF93DF93EC0181E0888F9B8D72
:1009D0008C8D981305C0E889F989808185FD26C032
:1009E000F62E0B8D10E00F5F1F4F0F731127E02EB7
:1009F0008C8DE8120CC00FB607FCFACFE889F98994
:100A0000808185FFF5CFCE010E94BC04F1CF8B8D94
:100A1000FE01E80FF11DE35AFF4FF0829FB7F894F3
:100A20000B8FEA89FB89808180620AC09FB7F894A6
:100A3000EE89FF896083E889F98980818370806409
:100A400080839FBF81E090E0DF91CF911F910F9154
:100A5000FF90EF900895CF93DF93EC01888D88236A
:100A6000C9F0EA89FB89808185FD05C0A889B9891B
:100A70008C9186FD0FC00FB607FCF5CF808185FFF6
:100A8000F2CFA889B9898C9185FFEDCFCE010E9464
:100A9000BC04E7CFDF91CF91089580E090E0892BEF
:100AA00029F00E94B20481110C9400000895FC0109
:100AB00077FD68C080859185681779070CF062C062
:100AC00057FD60C082859385481759070CF05AC0BE
:100AD0008689823059F08330B1F08130D1F48FE2D1
:100AE00090E0861B970BBA01AC0113C083E590E040
:100AF000FC01E61BF70BBF018FE290E0FC01E41B59
:100B0000F50BAF0106C083E590E0841B950BAB01AC
:100B1000BC0164357105B0F54033510598F5CA0143
:100B2000E3E095958795EA95E1F747705527232BE4
:100B3000A1F024E5289FF001299FF00D11246E0FEC
:100B40007F1FFB01E050FF4F81E090E001C0880F64
:100B50004A95EAF79081892B14C024E5289FF0017B
:100B6000299FF00D11246E0F7F1FFB01E050FF4FF6
:100B700081E090E001C0880F4A95EAF78095908166
:100B80008923808308950895FC016370668B8481B6
:100B9000958126813781613039F0633029F0918762
:100BA00080873387228708953187208793878287BC
:100BB00008956F927F928F929F92AF92BF92CF9241
:100BC000DF92EF92FF920F931F93CF93DF93EC018D
:100BD0004B015A0169013801E881F9810284F385EA
:100BE000E02D0995E881F9810288F389E02D8701DC
:100BF0009601A501B401CE010995A501460D571D29
:100C000041505109E881F9810288F389E02D96016C
:100C1000B401CE010995E881F9810088F189E02DC0
:100C20009301A501B401CE010995C80CD91CB601E8
:100C300061507109E881F9810088F189E02D930103
:100C4000A501CE010995E881F9810688F789E02D93
:100C5000CE01DF91CF911F910F91FF90EF90DF9028
:100C6000CF90BF90AF909F908F907F906F9009949E
:100C70008F929F92AF92BF92CF92DF92EF92FF92AC
:100C80000F931F93CF93DF934C016B015A01E9013E
:100C9000DC01ED91FC916217730781F404171507CD
:100CA00024F48B2D5801042F182F0A191B099801C1
:100CB0002F5F3F4F048CF58DE02D12C04017510778
:100CC00009F52617370724F48D2D6901C62FD82F73
:100CD0009E012C193D092F5F3F4F068CF78DE02DAB
:100CE0008701A501B601C4010995DF91CF911F913C
:100CF0000F91FF90EF90DF90CF90BF90AF909F90BB
:100D00008F9008950284F385E02D0995D401ED912B
:100D1000FC910488F589E02D9E01A501B601C4016E
:100D20000995D401ED91FC910688F789E02DC40165
:100D3000DF91CF911F910F91FF90EF90DF90CF90B7
:100D4000BF90AF909F908F900994EF92FF920F9376
:100D50001F93DC011A960D911C911B9718962D91EB
:100D60003C911997ED91FC9100A0F1A1E02D7B0140
:100D700040E050E060E070E009951F910F91FF9016
:100D8000EF9008954F925F926F927F928F929F9211
:100D9000AF92BF92CF92DF92EF92FF920F931F9389
:100DA000CF93DF936C012B015A0139014801DC011B
:100DB000ED91FC910284F385E02D0995E201640C2C
:100DC000751CD601ED91FC91C615D7055CF4008821
:100DD000F189E02D87019401A501BE01C6010995A5
:100DE0002196EFCF0688F789E02DC601DF91CF91DC
:100DF0001F910F91FF90EF90DF90CF90BF90AF9039
:100E00009F908F907F906F905F904F9009948F92FA
:100E10009F92AF92BF92CF92DF92EF92FF920F9389
:100E20001F93CF93DF93EC015B014A016901E881D5
:100E3000F9810284F385E02D099595012C0D3D1D66
:100E400021503109E881F9810488F589E02D780184
:100E50008401A401B501CE010995E881F9810688D4
:100E6000F789E02DCE01DF91CF911F910F91FF9077
:100E7000EF90DF90CF90BF90AF909F908F900994AC
:100E80008F929F92AF92BF92CF92DF92EF92FF929A
:100E90000F931F93CF93DF93EC015B014A0169012C
:100EA0007801E881F9810284F385E02D0995C80C69
:100EB000D91C860101501109E881F9810488F5895E
:100EC000E02D9501A401B501CE010995E881F981D4
:100ED0000688F789E02DCE01DF91CF911F910F9108
:100EE000FF90EF90DF90CF90BF90AF909F908F904A
:100EF00009940895EF92FF920F931F93DC01ED91F7
:100F0000FC9100A0F1A1E02D09951F910F91FF9098
:100F1000EF9008950F931F93DC01ED91FC91068CE7
:100F2000F78DE02D09951F910F9108950F931F9351
:100F3000DC01ED91FC91048CF58DE02D09951F915C
:100F40000F910895DC01ED91FC910084F185E02D75
:100F500009942F923F924F925F926F927F928F925D
:100F60009F92AF92BF92CF92DF92EF92FF920F9338
:100F70001F93CF93DF9300D000D000D0CDB7DEB762
:100F80002C017E836D836A015901C801FC82EB82CA
:100F90004801841A950A97FE03C0919481949108A0
:100FA00035012D813E81621A730A77FE03C0719468
:100FB00061947108681479045CF43A2D2B2D5C015E
:100FC000832F922F3D812E81DE82CD82C32ED22EA1
:100FD000AD81BE81AA16BB065CF43C2D2D2D6C01A3
:100FE000832F922F3D812E81BE82AD82A32EB22E01
:100FF00085012D813E81021B130B1C012C183D081D
:1010000037FE03C0319421943108780117FF03C0E3
:101010003FEFE31AF30AF594E794C816D9062CF0CB
:101020008FEF9FEF9A83898304C0A1E0B0E0BA8379
:10103000A9832D813E81A216B30624F1D201ED9140
:10104000FC910484F585E02D2B813C8168147904A2
:1010500024F44D815E81B60103C0A6016D817E81BD
:10106000C2010995E218F308F7FE06C029813A810A
:10107000C20ED31EE00EF11E8D819E8101969E83CD
:101080008D83D7CF26960FB6F894DEBF0FBECDBFA7
:10109000DF91CF911F910F91FF90EF90DF90CF9054
:1010A000BF90AF909F908F907F906F905F904F9088
:1010B0003F902F900895089580E090E008952F923A
:1010C0003F924F925F926F927F928F929F92AF92D8
:1010D000BF92CF92DF92EF92FF920F931F93CF9325
:1010E000DF9300D000D000D0CDB7DEB79E838D83D4
:1010F0007B01DC015A968D909D90AD90BC905D97E0
:10110000A5019401C501B4010E942F1A20E030E02E
:1011100048EC52E40E942F1A2B013C01B701FF0C4E
:10112000880B990B0E9468189B01AC01C301B201A6
:101130000E94C718A50194010E94C7186B017C0189
:10114000ED81FE81668D778D80A191A19B01AC011F
:101150000E94C3199B01AC01C701B6010E94C219CC
:10116000AD81BE8156966D937D938D939C935997D7
:10117000CD90DC90119752966D917D918D919C91BF
:1011800055970E94A11A69837A838B839C83C5013A
:10119000B4010E94A11A2B013C01ED81FE816685FC
:1011A0007785808991890E94A11A4B015C01AD81EC
:1011B000BE811A966D917D918D919C911D970E9493
:1011C000A11AD601ED91FC9106A0F7A1E02DEE2425
:1011D000E394F12C09811A819201A401C6010995B9
:1011E000ED81FE8120803180C68CD78CE0A0F1A0FB
:1011F000A7019601C701B6010E94C3199B01AC016A
:10120000AD81BE8152966D917D918D919C91559746
:101210000E94C2190E94A11A2B013C01ED81FE819E
:1012200066897789808D918D0E94A11A4B015C019E
:10123000AD81BE811E962D913D914D915C9151974E
:10124000C701B6010E94C3190E94A11A69837A835B
:101250008B839C83ED81FE81228533854485558572
:10126000C701B6010E94C3190E94A11AD101ED91D4
:10127000FC9100A0F1A1E02DEE24E394F12C820179
:10128000940149815A81C101099526960FB6F894B7
:10129000DEBF0FBECDBFDF91CF911F910F91FF90A9
:1012A000EF90DF90CF90BF90AF909F908F907F9006
:1012B0006F905F904F903F902F900895AF92BF92A4
:1012C000CF92DF92EF92FF920F931F93CF93DF9312
:1012D000EC01CB01BA01288139814A815B810E94EE
:1012E000C3195B016C01EC80FD800E811F819701A9
:1012F000A8010E94D71A87FF10C020E030E0A901A2
:10130000B501C6010E94611818161CF4750186010A
:1013100004C0E12CF12C00E010E0C701D801888363
:101320009983AA83BB83DD24D39420E030E0A90114
:10133000B701C8010E9461188111D12CDC86DF91B0
:10134000CF911F910F91FF90EF90DF90CF90BF90C2
:10135000AF900895AF92BF92CF92DF92EF92FF923B
:101360000F931F93CF93DF93EC01288539854A852E
:101370005B85688179818A819B810E94C2195B01AA
:101380006C01EC80FD800E811F819701A8010E94F5
:10139000D71A87FF10C020E030E0A901B501C601CF
:1013A0000E94611818161CF47501860104C0E12C16
:1013B000F12C00E010E0C701D80188839983AA834B
:1013C000BB83DD24D39420E030E0A901B701C8013C
:1013D0000E9461188111D12CDC86DF91CF911F9181
:1013E0000F91FF90EF90DF90CF90BF90AF90089556
:1013F0000E94C31C8F929F92AF92CF92EF92FF9266
:101400000F931F93CF93DF93EC01262F898D9A8D35
:10141000009709F042C06A3059F41D861C862D8958
:101420008E859F8538E0239F800D911D112443C038
:101430006D3009F4AAC08F898823C9F03C898C8556
:101440009D8546E0349F800D911D11244885598566
:101450004817590764F41D861C863D898E859F8533
:1014600048E0349F800D911D11249F878E87EA8864
:10147000FB88088919894E855F856C857D85AD88D7
:10148000CC88CE010E94FD0D2C898C859D8536E08F
:10149000239F800D911D11243EC06A3079F41D8672
:1014A0001C862D89FC013696E4918E859F852E9FA2
:1014B000800D911D11249F878E8767C06D3009F4C0
:1014C00064C0FC0134963491631708F45EC0319611
:1014D000E491E61708F459C0462F431B342FFC0152
:1014E00032968590949047E0349F800C911C112493
:1014F000F401329634913196E491332311F0E111E5
:101500000DC0F4013496E4912C898C859D85E29F71
:10151000800D911D11249D878C8737C0F40135966D
:1015200044915F89552319F15C89E32FF0E0E40FC2
:10153000F11D47FDFA955E9FB0015F9F700D11246C
:101540004C855D85460F571F68857985641775073B
:1015500074F41D861C863D89FC013696E4918E85C7
:101560009F853E9F800D911D11249F878E87EA885D
:10157000FB88088919894E855F856C857D85AD88D6
:10158000CC88CE010E94FD0DBCCF81E090E0DF91C0
:10159000CF911F910F91FF90EF90CF90AF909F90C0
:1015A0008F9008951F920F920FB60F9211242F93D0
:1015B0003F938F939F93AF93BF938091F904909142
:1015C000FA04A091FB04B091FC043091570423E08D
:1015D000230F2D3720F40196A11DB11D05C026E86B
:1015E000230F0296A11DB11D209357048093F90487
:1015F0009093FA04A093FB04B093FC0480915804E8
:1016000090915904A0915A04B0915B040196A11DD8
:10161000B11D8093580490935904A0935A04B09339
:101620005B04BF91AF919F918F913F912F910F904C
:101630000FBE0F901F9018950F931F93CF93DF93BA
:10164000EC0188819981009729F02A813B81261736
:10165000370788F48B016F5F7F4F0E94FD1B009757
:1016600061F0998388831B830A832C813D81232B1E
:1016700011F4FC01108281E001C080E0DF91CF9184
:101680001F910F910895CF93DF93EC018881998189
:10169000009711F00E94741B198218821D821C820F
:1016A0001B821A82DF91CF910895EF92FF920F93E0
:1016B0001F93CF93DF93EC01198218821B821A8249
:1016C0001D821C826115710521F18B01FB010190C6
:1016D0000020E9F731977F01E61AF70AB7010E9467
:1016E0001C0B811109C0CE01DF91CF911F910F9189
:1016F000FF90EF900C94430BFD82EC82B80188813F
:101700009981DF91CF911F910F91FF90EF900C94F1
:10171000D11CDF91CF911F910F91FF90EF90089511
:101720001F920F920FB60F9211242F933F934F9356
:101730005F936F937F938F939F93AF93BF93EF9339
:10174000FF938CE594E00E94BC04FF91EF91BF9160
:10175000AF919F918F917F916F915F914F913F9149
:101760002F910F900FBE0F901F9018951F920F9200
:101770000FB60F9211242F938F939F93EF93FF93A4
:10178000E0916C04F0916D048081E0917204F0911D
:10179000730482FD12C09081809175048F5F8F73F6
:1017A00020917604821751F0E0917504F0E0E45A3C
:1017B000FB4F958F8093750401C08081FF91EF915D
:1017C0009F918F912F910F900FBE0F901F901895A2
:1017D00090917E059F3F21F490917F059F3F59F1A5
:1017E00028E030E040E8E0918505F09186055081E1
:1017F00090918805909595239083E0918305F091D1
:10180000840590918705582F542319F05081952B0A
:1018100003C05081909595239083E0918505F091C8
:101820008605508190918805952B9083469521508F
:101830003109C9F608958EBD00000DB407FEFDCF35
:101840008EB5089542E050E06EE174E08CE594E0DE
:101850000C944B04CF93DF93CDB7DEB762970FB6EE
:10186000F894DEBF0FBECDBF2091BC05211107C08B
:10187000892B09F03FC081E08093BC053BC00097F5
:1018800019F41092BC0536C02091CF053091D005D7
:10189000820F931F883091052CF497FF05C080E0DC
:1018A00090E002C088E090E09093D0058093CF054F
:1018B00020E030E08217930779F422E1289FF001BD
:1018C000299FF00D1124E45CFC4FDE01119601907C
:1018D0000D922A95E1F705C02F5F3F4F2930310562
:1018E00049F782E1FE013196ADEBB5E001900D9232
:1018F0008A95E1F762960FB6F894DEBF0FBECDBFB2
:10190000DF91CF910895CF93DF93009779F0FC0199
:1019100001900020E9F73197AF01481B590BBC013A
:101920008CE594E00E944B04EC0102C0C0E0D0E0E2
:101930000E94220C8C0F9D1FDF91CF910895FC0116
:10194000808191810C94741BCF93DF93FC014481BF
:101950005581608171818CE594E00E944B04EC011B
:101960000E94220C8C0F9D1FDF91CF9108950F9341
:101970001F93CF93DF93EC010C811D810F5F1F4FED
:10198000B8010E941C0B882369F0288139818C8161
:101990009D8161E274E0820F931F0E94D11C1D8320
:1019A0000C8303C0CE010E94430BCE01DF91CF9187
:1019B0001F910F910895EF92FF920F931F93CF9372
:1019C000DF93EC01FB0104811581E080F180E114DB
:1019D000F104C9F001151105C9F08C819D81080F32
:1019E000191FB801CE010E941C0B882361F02881C9
:1019F00039818C819D81B701820F931F0E94D11C78
:101A00001D830C8303C0CE010E94430BCE01DF91E6
:101A1000CF911F910F91FF90EF900895CF92DF9299
:101A2000EF92FF920F931F93CF93DF93CDB7DEB763
:101A3000A1970FB6F894DEBF0FBECDBF7C01CB01DE
:101A4000BA01F70111821082138212821582148268
:101A50008E010F5F1F4F22E044E00E940F166C01C1
:101A6000009771F0FC0101900020E9F731978F0198
:101A7000081B190BB801C7010E941C0B811104C07F
:101A8000C7010E94430B08C0F70115830483B60108
:101A9000808191810E94D11CA1960FB6F894DEBF7F
:101AA0000FBECDBFDF91CF911F910F91FF90EF90AF
:101AB000DF90CF90089590E0FC01E45DF74F249112
:101AC000FC01E85EF74F8491882399F090E0880F3D
:101AD000991FFC01E25FF74FA591B491FC01EC5F07
:101AE000F74F859194918FB7F894EC91E22BEC939A
:101AF0008FBF08953F924F925F926F927F928F9225
:101B00009F92AF92BF92CF92DF92EF92FF920F938C
:101B10001F93CF93DF9300D000D000D0CDB7DEB7B6
:101B20002C013B014A015901C901079697FD07960F
:101B30009C0193E0359527959A95E1F73C832B839B
:101B4000C12CD12CE12CF12C312CC3018E0D9F1D09
:101B50009A838983E016F106C4F51E821D822D81C9
:101B60003E812A153B054CF5C90187709927892BC1
:101B700011F0330C0EC0ED81FE81F7FD379683E046
:101B8000F595E7958A95E1F7EC0DFD1DE80DF91D3A
:101B9000349037FE0CC021E030E049815A816D81DC
:101BA0007E81640D751D83E695E00E94A2078D81FC
:101BB0009E8101969E838D83D2CF9FEFE91AF90A09
:101BC0002B813C81C20ED31EC0CF26960FB6F8944F
:101BD000DEBF0FBECDBFDF91CF911F910F91FF9060
:101BE000EF90DF90CF90BF90AF909F908F907F90BD
:101BF0006F905F904F903F9008952F923F924F9239
:101C00005F926F927F928F929F92AF92BF92CF928C
:101C1000DF92EF92FF920F931F93CF93DF93CDB795
:101C2000DEB76B970FB6F894DEBF0FBECDBF9B8FAC
:101C30008A8F1B014A01D22E198708873701A98292
:101C4000DC0159962D913C915A972115310509F0E7
:101C5000FFC018968D919C911997681779070CF021
:101C6000E7C11A968D919C911B97481759070CF064
:101C7000DFC1EC2DF0E0FB83EA839B0146E0C49ECC
:101C8000200D311D11243D872C87121613060CF0F0
:101C9000CFC16A2D70E07B876A8783E0660F771F6C
:101CA0008A95E1F77F876E87CB01880D991D1816FD
:101CB00019060CF0BDC158968C91811104C08FEAB1
:101CC0008D1508F4D394AA8DBB8DED91FC911197DD
:101CD0000284F385E02DCD010995B5E0DB9EC001BE
:101CE0001124EC2DF0E0F98BE88B91012B5F3F4F35
:101CF0003B8B2A8B3D822C822101AC014219530976
:101D00005D8B4C8B7981672F70E07F8B6E8BC4016C
:101D10000896998F888FEC89FD89E40DF51DEC5F9D
:101D2000FC4FD49054019F828E82D0FE16C0AA8DA3
:101D3000BB8DED91FC91B1E0CB1209C0298121301E
:101D400031F40484F585E02D2885398519C0068491
:101D5000F785E02DE884F9841DC04885598546152E
:101D6000570519F1AA8DBB8DED91FC91B1E0CB1215
:101D70000DC02981213051F40484F585E02D9301B3
:101D8000A501B2018A8D9B8D09950FC00684F78548
:101D9000E02D73010A851B852A813B814E815F817D
:101DA0006C817D818A8D9B8D0995D6943FEFA31A16
:101DB000B30A4E815F816E897F89460F571F5F830B
:101DC0004E83888D998DA816B90609F0AECF9FEF86
:101DD000491A590AAC81BD81E889F989AE0FBF1F44
:101DE000BD83AC832A893B894216530609F093CF01
:101DF000488559854615570509F4F8C0AA8DBB8D4D
:101E0000ED91FC91B1E0CB1211C02981213071F428
:101E1000B1016B5F7F4F0088F189E02D830128E0DD
:101E200030E0A4018A8D9B8D0995E0C06C857D858D
:101E30004A815B81641B750B0684F785E02D730175
:101E40000E851F859A01A4018A8D9B8D0995CEC0B0
:101E5000F9013496E491DE1AF90132968591949154
:101E6000B7E0DB9E800D911D1124F901259134917D
:101E70003B8B2A8BFC01259134915901FC01329650
:101E80005490319634913C873296749031961491E7
:101E900041E04C1518F05981523068F0672D072C3D
:101EA000000C770B7D836C83812F012E000C990B26
:101EB0009B838A8304C01B821A821D821C82AA8D86
:101EC000BB8DED91FC9111970284F385E02DCD013E
:101ED0000995412CD12C612CF981EF2FF0E0FF8383
:101EE000EE832C2D30E03B872A87A401410F511D42
:101EF00017FD5A955F8B4E8BB101670D711D77FCF5
:101F00007A95798F688F7C85671608F06FC0262DCB
:101F100030E04A815B81420F531FAE81BF81A49F95
:101F2000C001A59F900DB49F900D1124F401E80FFE
:101F3000F91FF98BE88B842D712C4E895F89420F34
:101F4000531F5D8B4C8B751408F04DC051E0580F3A
:101F50005E87877041F4C5010196EA89FB89EA0D25
:101F6000FB1DD4905C01D7FE3AC061E0C61216C0DA
:101F70007981713099F4AA8DBB8DED91FC91119707
:101F80000484F585E02D288539854C895D89688D27
:101F9000798D670D711DCD01099521C08C819D81C1
:101FA000870D911DEA85FB858E9FB0018F9F700D77
:101FB0009E9F700D1124620D731DAA8DBB8DED9136
:101FC000FC9111970684F785E02DE884F9840E8151
:101FD0001F812A853B8548895989CD010995DD0CEA
:101FE00073948E85B0CF450C63948DCFAA8DBB8D35
:101FF000ED91FC9111970688F789E02DCD016B9644
:102000000FB6F894DEBF0FBECDBFDF91CF911F9109
:102010000F91FF90EF90DF90CF90BF90AF909F9087
:102020008F907F906F905F904F903F902F9009948A
:102030006B960FB6F894DEBF0FBECDBFDF91CF9188
:102040001F910F91FF90EF90DF90CF90BF90AF90D6
:102050009F908F907F906F905F904F903F902F90C8
:10206000089590E0FC01E051FD4F2491FC01E45DF6
:10207000F74F3491FC01E85EF74FE491EE2309F449
:102080003CC0222339F1233091F038F42130A9F0FB
:10209000223001F584B58F7D12C0273091F02830B1
:1020A000A1F02430B9F4809180008F7D03C080912D
:1020B00080008F77809380000DC084B58F7784BDBA
:1020C00009C08091B0008F7703C08091B0008F7DF0
:1020D0008093B000F0E0EE0FFF1FEC5FF74FA5918B
:1020E000B4919FB7F894611104C08C913095382356
:1020F00002C0EC913E2B3C939FBF0895CF93C82F15
:1021000060E0809180050E94311080918205181650
:102110001CF460E00E9431108C2F0E94E80B80912B
:102120008205181624F461E0CF910C943110CF9100
:102130000895EF92FF920F931F93CF93DF9300E0E8
:1021400011E0C0E08C2F80640E947E1080E80E9425
:102150007E1061E0809180050E943110809182059F
:1021600018161CF460E00E9431107801D4E5F701E4
:1021700081917F010E94E80BD150C9F780918205BF
:1021800018161CF461E00E943110CF5F0C5A1F4FEB
:10219000C630C1F680E4DF91CF911F910F91FF907F
:1021A000EF900C947E103FB7F89480915804909172
:1021B0005904A0915A04B0915B0426B5A89B05C0B0
:1021C0002F3F19F00196A11DB11D3FBFBA2FA92FB6
:1021D000982F8827820F911DA11DB11DBC01CD0133
:1021E00042E0660F771F881F991F4A95D1F708951F
:1021F000CF93DF93CDB7DEB72C970FB6F894DEBF41
:102200000FBECDBF789484B5826084BD84B58160F3
:1022100084BD85B5826085BD85B5816085BD8091B1
:102220006E00816080936E00109281008091810029
:102230008260809381008091810081608093810021
:10224000809180008160809380008091B1008460E3
:102250008093B1008091B00081608093B000809144
:102260007A00846080937A0080917A008260809303
:102270007A0080917A00816080937A0080917A0060
:10228000806880937A001092C100E0916C04F09114
:102290006D0482E08083E0916804F091690410820B
:1022A000E0916A04F0916B048FEC808310927404C7
:1022B000E0917004F091710486E08083E0916E04F7
:1022C000F0916F04808180618083E0916E04F091D1
:1022D0006F04808188608083E0916E04F0916F04C8
:1022E000808180688083E0916E04F0916F0480812A
:1022F0008F7D808380917E058F3F29F490917F05AB
:102300009F3F09F4A4C20E945B0D80917F050E944B
:102310005B0D80917F05082E000C990BFC01E85E97
:10232000F74FE491F0E0EE0FFF1FEC5FF74F2591C0
:1023300034913093860520938505FC01E45DF74FC9
:10234000E491E093880580917E05082E000C990B9E
:10235000FC01E85EF74FE491F0E0EE0FFF1FEC5F49
:10236000F74F259134913093840520938305FC0128
:10237000E45DF74FE491E0938705809180050E942A
:102380005B0D80918105181614F40E945B0D8091FD
:102390008205181614F40E945B0D809181051816B1
:1023A0007CF560E00E9431100E94D3106B017C012B
:1023B000F4EF8F2E99249394A12CB12C0E94D3106A
:1023C000DC01CB018C199D09AE09BF09883E934001
:1023D000A105B10598F321E0821A9108A108B1087E
:1023E00038EEC30E33E0D31EE11CF11C81149104BE
:1023F000A104B10419F761E0809181050E943110B8
:1024000081E20E947E1084E10E947E1088EA0E9490
:102410007E1080E20E947E108CE00E947E100E945E
:10242000991081E20E947E108CEB0E947E1080E267
:102430000E947E1088EF91E0E0E0F1E0DF019C0176
:102440001D9221503040E1F71092700510926F05F7
:1024500010927205109271050E94991040E0C42EEE
:1024600041E0D42E58EFA52EBB24B39455245394A9
:10247000EE24E394F12C74E1872E912CE4E26E2E8D
:10248000712CD601F5011D923197E9F7509277052D
:1024900050927805F0927605E0927505F0927405F9
:1024A000E09273059092700580926F0570927205AC
:1024B0006092710520E030E0A9016091B005709153
:1024C000B1058091B2059091B3050E94D71A1816F4
:1024D0000CF042C02FB7F8948091F9049091FA045F
:1024E000A091FB04B091FC042FBF0091B80510919E
:1024F000B9052091BA053091BB05BC01CD01601B27
:10250000710B820B930B0E9466189B01AC016091CA
:10251000B0057091B1058091B2059091B3050E940C
:10252000C2196093B0057093B1058093B205909382
:10253000B3052FB7F8948091F9049091FA04A09113
:10254000FB04B091FC042FBF8093B8059093B905AC
:10255000A093BA05B093BB0520E030E0A9016091DB
:10256000B0057091B1058091B2059091B3050E94BC
:10257000611818160CF4A6C089E895E00E94AA0913
:1025800086E995E00E94AA0983EA95E00E94AA09DB
:102590008EED93E00E94830C4091890550918A054D
:1025A00060918B0570918C05CE0107960E940E0DEF
:1025B00068EF73E0CE0101960E94550BBE01695F82
:1025C0007F4FCE0101960E94DB0C0E94B70C0E9447
:1025D000A40CCE0101960E949F0CCE0107960E948A
:1025E0009F0C4091960550919705609198057091C8
:1025F0009905CE0107960E940E0D61E074E0CE01B0
:1026000001960E94550BBE01695F7F4FCE01019676
:102610000E94DB0C0E94B70C0E94A40CCE01019614
:102620000E949F0CCE0107960E949F0C4091A3052B
:102630005091A4056091A5057091A605CE0107965D
:102640000E940E0D69E074E0CE0101960E94550BC8
:10265000BE01695F7F4FCE0101960E94DB0C0E9494
:10266000B70C0E94A40CCE0101960E949F0CCE01D3
:1026700007960E949F0C81E194E00E94830C809158
:10268000B4059091B505A091B605B091B7058093BA
:10269000B0059093B105A093B205B093B3052FB7E1
:1026A000F8948091F9049091FA04A091FB04B09100
:1026B000FC042FBF8093B8059093B905A093BA0589
:1026C000B093BB056091890570918A0580918B0557
:1026D00090918C050E94A11A81E495E00E945F0808
:1026E0006091960570919705809198059091990554
:1026F0000E94A11A8FE195E00E945F086091A305F6
:102700007091A4058091A5059091A6050E94A11A3B
:102710008DEF94E00E945F0820919505252580911A
:10272000A205852590E0820F911D2091AF052525FA
:10273000820F911D0EE110E024E130E0833091051D
:1027400019F446E152E007C0029719F44CEB51E04E
:1027500002C042E651E061E070E086E090E00E9455
:102760007A0D8091BC05882311F16091BD057091AF
:10277000BE05CE0101960E94550B4D815E81698197
:102780007A8183E695E00E944B04CE0101960E9477
:102790009F0C4091CD055091CE0500E110E020E165
:1027A00030E060E270E080E090E00E947A0D8CE51D
:1027B00094E00E94A604181619060CF043C08CE59C
:1027C00094E00E948404843671F02CF48136D1F5B3
:1027D0008FEF9FEF0AC0863619F0873749F032C075
:1027E00080E090E002C081E090E00E942A0C2AC0C4
:1027F0008091BC05882331F14091C1055091C205FB
:102800006091C3057091C40589E895E00E945E0956
:102810004091C9055091CA056091CB057091CC05D6
:1028200086E995E00E945E094091C5055091C60574
:102830006091C7057091C80583EA95E00E945E0922
:102840001092BC050E9499100E944D051ACEFFB649
:10285000F89480915604811124C0E2E2F8E084915A
:10286000E6E3F8E09491E82FF0E0EE0FFF1FE25F5F
:10287000F74FA591B491EC91E92321F461E08AE04E
:102880000E9431108AE00E945B0D8CB580618CBD86
:102890008CB580648CBD8DE00E945B0D8BE00E9446
:1028A0005B0D809156048F5F80935604FFBE8CB5FC
:1028B0008C7F8CBD8DB58E7F8DBD8CB5837F8CBD9F
:1028C0008CB58F7D8CBD59CD4F925F926F927F9268
:1028D0008F929F92AF92BF92CF92DF92EF92FF9230
:1028E0000F931F93CF93DF93CDB7DEB762970FB6E9
:1028F000F894DEBF0FBECDBFECE5F4E01382128288
:1029000088EE93E0A0E0B0E084839583A683B7834C
:1029100082E093E09183808385EC90E095878487C3
:1029200084EC90E09787868780EC90E0918B808B99
:1029300081EC90E0938B828B82EC90E0958B848B82
:1029400086EC90E0978B868B118E128E138E148EF0
:10295000E9E8F5E0148680E090E0A8ECB2E480833A
:102960009183A283B38384839583A683B78340E056
:1029700050E060E07FE34087518762877387118E64
:1029800085879687A787B08B818B928BA38BB48B1F
:102990004DEC5CEC6CE47EE3458B568B678B708F63
:1029A00016A2828F938FA48FB58F868F978FA0A347
:1029B000B1A34DEC5CEC6CEC7DE342A353A364A3A8
:1029C00075A313A614A615A616A687A390A7A1A75C
:1029D000B2A72FB7F8948091F9049091FA04A091CE
:1029E000FB04B091FC042FBF87A790ABA1ABB2ABA7
:1029F00087A190A5A1A5B2A583A794A7A5A7B6A7CF
:102A000013AA1092D0051092CF0582E1ECE3F3E017
:102A1000DE01119601900D928A95E1F782E1FE01A7
:102A20003196ADEBB5E001900D928A95E1F7E3E6C2
:102A3000F5E01382128224E530E03583248380E3BD
:102A400090E0978386833187208793878287168AD1
:102A5000158614861786168681E0858B848B2FEF6A
:102A60003FEF338B228B318B208B878B108E128E16
:102A7000118E84E193E09183808384E0838F83E0EF
:102A8000848F85E0858F87E0868F86E0878FA1E43D
:102A9000B5E01196FC93EE9316961D921D921D9231
:102AA0001C92199740E050E060EC70E412964D9350
:102AB0005D936D937C931597812C912C8CE2A82EBD
:102AC00082E4B82E1A968D929D92AD92BC921D977B
:102AD00000E010E020E83FE31E960D931D932D9338
:102AE0003C93519752964D935D936D937C9355977C
:102AF000C12CD12C90E2E92E92E4F92E5A96CD9277
:102B0000DD92ED92FC925D9700E010E020E030E471
:102B10005E960D931D932D933C939197AFE1B5E095
:102B20001196FC93EE9316961D921D921D921C9287
:102B3000199712964D935D936D937C9315971A9602
:102B40008D929D92AD92BC921D97412C512C88EC98
:102B5000682E81E4782E1E964D925D926D927C9245
:102B6000519752964D935D936D937C9355975A96DA
:102B7000CD92DD92ED92FC925D975E960D931D9342
:102B80002D933C939197ADEFB4E01196FC93EE93A7
:102B900016961D921D921D921C92199712964D9396
:102BA0005D936D937C9315971A968D929D92AD923D
:102BB000BC921D97812C912C90E5A92E91E4B92E01
:102BC0001E968D929D92AD92BC92519752964D93C6
:102BD0005D936D937C9355975A96CD92DD92ED92CD
:102BE000FC925D975E960D931D932D933C93919768
:102BF00062960FB6F894DEBF0FBECDBFDF91CF91C6
:102C00001F910F91FF90EF90DF90CF90BF90AF900A
:102C10009F908F907F906F905F904F900895EF926C
:102C20000F931F93CF93DF93E80147FD02C034E079
:102C300001C034E1042E000C550B57FF03C0519521
:102C400041955109E32E022F242FAE010E942F1629
:102C5000CE01DF91CF911F910F91EF900895A9E0E0
:102C6000B0E0E5E3F6E10C948B196A01122FB02E67
:102C70002BE3201720F0FF24F394F00E02C02CE386
:102C8000F22E0F2D27E0AE014F5F5F4F0E94891794
:102C9000BC014981842F8970813031F0E1FC06C08C
:102CA000E0FE06C090E205C09DE203C09BE201C0C9
:102CB00090E05E2D507143FF3CC0911102C083E053
:102CC00001C084E0811718F4212F281B01C020E0E7
:102CD00051110BC0F601822F30E2882319F0319395
:102CE0008150FBCFC20ED11C20E0992329F0D601E0
:102CF0009C93F60131966F01C6010396E2FE0AC06D
:102D00003EE4D6013C9341E411964C931197129600
:102D10003C9306C03EE6F601308341E641833283B0
:102D2000FC01322F40E2332309F442C04193315079
:102D3000FACF42FF44C0911102C083E001C084E099
:102D4000811718F4212F281B01C020E051110BC05E
:102D5000F601822F30E2882319F031938150FBCFA6
:102D6000C20ED11C20E0992329F0D6019C93F601D4
:102D700031966F01C6010396E2FE0BC039E4D6011D
:102D80003C933EE411963C93119736E412963C93A3
:102D900007C039E6F60130833EE6318336E63283FA
:102DA000FC01322F40E2332319F041933150FBCF25
:102DB000FC01E20FF11D10828EEF9FEFA6C021E013
:102DC00030E0911102C020E030E0161617061CF426
:102DD000FB01319602C0E1E0F0E02E0F3F1FBB2067
:102DE00021F0EB2DF0E0319602C0E0E0F0E02E0F94
:102DF0003F1FE12FF0E02E173F071CF4121B212F7D
:102E000001C020E08E2D887159F4F601822F30E246
:102E1000882319F031938150FBCFC20ED11C20E0E2
:102E2000992329F0D6019C93F60131966F01511137
:102E30000BC0F601822F90E3882319F09193815003
:102E4000FBCFC20ED11C20E00F2D060F9A81342F2C
:102E5000307144FF03C0913309F40150101624F47B
:102E6000093018F008E001C001E0AB0177FF02C0B3
:102E700040E050E0FB01E41BF50BA1E0B0E0AC0F3B
:102E8000BD1FEA0FFB1F8EE2A82E4B01801A91088E
:102E90000B2D10E01195019511094F3FBFEF5B0716
:102EA00021F4D601AC9211966D01641775072CF0D0
:102EB0008416950614F4818101C080E341505109C4
:102EC0003196D60111967D014017510724F0D601A5
:102ED0008C936701E2CF6417750739F4963320F4B9
:102EE000953319F4311101C081E3F6018083F701B4
:102EF000822F90E2882319F091938150FBCFF70144
:102F0000E20FF11D108280E090E02996ECE00C9435
:102F1000A719283008F027E03327DA01990F311D6F
:102F200087FD916000966105710539F432602E5F6E
:102F30003D9330E32A95E1F708959F3F30F08038C4
:102F40007105610509F03C5F3C5F3D93913008F0ED
:102F50008068911DDF93CF931F930F93FF92EF92A1
:102F6000192F987F9695E92F96959695E90FFF274B
:102F7000EE53FF4F99273327EE24FF24A701E701E3
:102F800005900894079428F4360FE71EF81E491F91
:102F9000511D660F771F881F991F0694A1F7059092
:102FA000079428F4E70EF81E491F561FC11D770F1E
:102FB000881F991F661F0694A1F70590079428F4AF
:102FC000F80E491F561FC71FD11D880F991F661F76
:102FD000771F0694A1F70590079420F4490F561F18
:102FE000C71FD81F990F661F771F881F0694A9F760
:102FF00084911095177041F0D695C79557954795D0
:10300000F794E7941A95C1F7E8E6F0E06894159014
:10301000159135916591959105907FE27395E11831
:10302000F10A430B560BC90BD009C0F7E10CF11E96
:10303000431F561FC91FD01D7EF4703311F48A95AB
:10304000E6CFE894015030F0080F0AF40027021789
:1030500008F4202F2395022F7A3328F079E37D930B
:103060002A95E9F710C07D932A9589F606949795DD
:103070006795379517951794E118F10A430B560B8E
:10308000C90BD00998F023957E9173957A3308F097
:1030900070E37C932013B8F77E9170617D9330F0DC
:1030A000839571E37D9370E32A95E1F71124EF9006
:1030B000FF900F911F91CF91DF91992787FD9095F8
:1030C00008950E94A31808F481E00895E89409C0C7
:1030D00097FB3EF490958095709561957F4F8F4F4B
:1030E0009F4F9923A9F0F92F96E9BB279395F69561
:1030F000879577956795B795F111F8CFFAF4BB0FDF
:1031000011F460FF1BC06F5F7F4F8F4F9F4F16C042
:10311000882311F096E911C0772321F09EE8872FCC
:10312000762F05C0662371F096E8862F70E060E088
:103130002AF09A95660F771F881FDAF7880F969501
:10314000879597F90895990F0008550FAA0BE0E8A5
:10315000FEEF16161706E807F907C0F01216130659
:10316000E407F50798F0621B730B840B950B39F499
:103170000A2661F0232B242B252B21F408950A26FF
:1031800009F4A140A6958FEF811D811D08950E942D
:10319000DA180C944B190E943D1938F00E9444191A
:1031A00020F0952311F00C9434190C943A19112441
:1031B0000C947F190E945C1970F3959FC1F3950FD1
:1031C00050E0551F629FF001729FBB27F00DB11DAB
:1031D000639FAA27F00DB11DAA1F649F6627B00D3B
:1031E000A11D661F829F2227B00DA11D621F739F24
:1031F000B00DA11D621F839FA00D611D221F749F32
:103200003327A00D611D231F849F600D211D822F78
:10321000762F6A2F11249F5750409AF0F1F088239F
:103220004AF0EE0FFF1FBB1F661F771F881F9150CC
:103230005040A9F79E3F510580F00C9434190C942E
:103240007F195F3FE4F3983ED4F3869577956795B1
:10325000B795F795E7959F5FC1F7FE2B880F911DF6
:103260009695879597F9089597F99F6780E870E09C
:1032700060E008959FEF80EC089500240A941616EC
:10328000170618060906089500240A941216130654
:10329000140605060895092E0394000C11F48823E2
:1032A00052F0BB0F40F4BF2B11F460FF04C06F5FFE
:1032B0007F4F8F4F9F4F089557FD9058440F551FD4
:1032C00059F05F3F71F04795880F97FB991F61F0A8
:1032D0009F3F79F087950895121613061406551F1F
:1032E000F2CF4695F1DF08C0161617061806991F8B
:1032F000F1CF86957105610508940895E894BB2780
:1033000066277727CB0197F908952F923F924F9226
:103310005F926F927F928F929F92AF92BF92CF9265
:10332000DF92EF92FF920F931F93CF93DF93CDB76E
:10333000DEB7CA1BDB0B0FB6F894DEBF0FBECDBFE6
:1033400009942A88398848885F846E847D848C84B7
:103350009B84AA84B984C884DF80EE80FD800C81C0
:103360001B81AA81B981CE0FD11D0FB6F894DEBFA3
:103370000FBECDBFED010895EE0FFF1F0590F49134
:10338000E02D09945058BB27AA270E94DA190C9403
:103390004B190E943D1938F00E94441920F039F46D
:1033A0009F3F19F426F40C943A190EF4E095E7FBCC
:1033B0000C943419E92F0E945C1958F3BA1762076C
:1033C00073078407950720F079F4A6F50C947E190D
:1033D0000EF4E0950B2EBA2FA02D0B01B901900130
:1033E0000C01CA01A0011124FF27591B99F0593F74
:1033F00050F4503E68F11A16F040A22F232F342FBC
:103400004427585FF3CF469537952795A795F04009
:103410005395C9F77EF41F16BA0B620B730B840B1E
:10342000BAF09150A1F0FF0FBB1F661F771F881FD6
:10343000C2F70EC0BA0F621F731F841F48F487952E
:1034400077956795B795F7959E3F08F0B0CF939520
:10345000880F08F09927EE0F9795879508950E9499
:10346000431A0C944B190E94441958F00E943D19BC
:1034700040F029F45F3F29F00C94341951110C9459
:103480007F190C943A190E945C1968F39923B1F3DF
:10349000552391F3951B550BBB27AA27621773077A
:1034A000840738F09F5F5F4F220F331F441FAA1F0E
:1034B000A9F335D00E2E3AF0E0E832D091505040CA
:1034C000E695001CCAF72BD0FE2F29D0660F771F78
:1034D000881FBB1F261737074807AB07B0E809F05E
:1034E000BB0B802DBF01FF2793585F4F3AF09E3FE3
:1034F000510578F00C9434190C947F195F3FE4F374
:10350000983ED4F3869577956795B795F7959F5F25
:10351000C9F7880F911D9695879597F90895E1E071
:10352000660F771F881FBB1F621773078407BA07D0
:1035300020F0621B730B840BBA0BEE1F88F7E0952B
:1035400008950E94A81A6894B1110C947F190895E7
:103550000E94641988F09F5798F0B92F9927B751A6
:10356000B0F0E1F0660F771F881F991F1AF0BA9527
:10357000C9F714C0B13091F00E947E19B1E00895EE
:103580000C947E19672F782F8827B85F39F0B93FE0
:10359000CCF3869577956795B395D9F73EF49095DA
:1035A0008095709561957F4F8F4F9F4F08950E9432
:1035B000A31808F48FEF08950F931F93CF93DF9311
:1035C0008230910510F482E090E0E091D305F09113
:1035D000D40520E030E0A0E0B0E0309719F1408160
:1035E00051810281138148175907C8F08417950744
:1035F00069F4109731F012960C93129713961C935E
:1036000027C00093D3051093D40522C0211531059E
:1036100019F04217530718F49A01BD01EF01DF01B9
:10362000F801DBCF21153105F9F0281B390B2430C7
:10363000310580F48A819B816115710521F0FB01C0
:103640009383828304C09093D4058093D305FE01B5
:10365000329644C0FE01E20FF31F819391932250F2
:103660003109398328833AC02091D1053091D205A0
:10367000232B41F42091FA023091FB023093D205C2
:103680002093D1052091F8023091F90221153105DE
:1036900041F42DB73EB74091FC025091FD02241B2E
:1036A000350BE091D105F091D205E217F307A0F4B4
:1036B0002E1B3F0B2817390778F0AC014E5F5F4F88
:1036C0002417350748F04E0F5F1F5093D2054093E3
:1036D000D1058193919302C0E0E0F0E0CF01DF914A
:1036E000CF911F910F910895CF93DF93009709F425
:1036F00081C0FC01329713821282A091D305B09150
:10370000D405109781F420813181820F931F20917D
:10371000D1053091D2052817390751F5F093D2051C
:10372000E093D10567C0ED0120E030E0CE17DF0760
:1037300040F44A815B819E0141155105F1F0EA0197
:10374000F5CFD383C28340815181840F951FC81761
:10375000D90759F488819981840F951F0296918326
:1037600080838A819B81938382832115310529F48B
:10377000F093D405E093D3053DC0E901FB83EA83D0
:1037800049915991C40FD51FEC17FD0761F4808151
:103790009181840F951F0296E90199838883828124
:1037A00093819B838A83E0E0F0E012968D919C9157
:1037B0001397009719F0FD01DC01F7CF8D919C91D3
:1037C00011979D012E5F3F4F820F931F2091D105CE
:1037D0003091D2052817390769F4309729F41092EF
:1037E000D4051092D30502C013821282B093D20581
:1037F000A093D105DF91CF910895A0E0B0E0E3E080
:10380000FCE10C948919EC01009721F4CB010E9492
:10381000DC1AB4C0FC01E60FF71F9C0122503109ED
:10382000E217F30708F4A8C0D9010D911C91119774
:1038300006171707B0F00530110508F49BC0C80142
:1038400004978617970708F495C002501109061BC4
:10385000170B019311936D937C93CF010E94741BFE
:1038600089C05B01A01AB10A4C01800E911EA09183
:10387000D305B091D405612C712CE12CF12C10975B
:1038800009F446C08D919C911197A815B905B1F521
:103890006C0142E0C40ED11CCA14DB0478F14C0167
:1038A0008A189B08640142E0C40ED11C1296BC9099
:1038B00012971396AC91B5E0CB16D10440F0B282CA
:1038C000A38391828082D9016D937C9309C00E5F9E
:1038D0001F4F800F911FF90191838083EB2DFA2FE9
:1038E000E114F10431F0D7011396FC93EE93129793
:1038F00041C0F093D405E093D3053CC06816790627
:1039000008F43C017D0112960D90BC91A02DB7CF1B
:103910008091D1059091D20588169906E1F466163A
:103920007706C8F48091F8029091F902009741F46B
:103930008DB79EB74091FC025091FD02841B950B00
:10394000E817F907C8F4F093D205E093D105F9011F
:10395000718360830FC0CB010E94DC1A7C01009749
:1039600059F0A801BE010E94C81CCE010E94741B20
:10397000C70104C0CE0102C080E090E0CDB7DEB741
:10398000EEE00C94A51981E090E0F8940C94D81C1A
:10399000FB01DC0102C001900D9241505040D8F76C
:1039A0000895FB01DC0101900D920020E1F70895DC
:0439B000F894FFCFB9
:1039B4000000000000000000000000000000000003
:1039C40000000000000000000000000000000000F3
:1039D400000000000000C0E0F0F8FCFCFEFFFCE08A
:1039E40000000000000000000000000000000000D3
:1039F40000000000000000000000000000000000C3
:103A040000000000000000000000000000000000B2
:103A14000000000000F8F8F8F8F8F8F8F8F8F8F8FA
:103A2400F8F0F0E0E0C080C0FCFFFFFFFF7F3F7FC5
:103A3400FFFFFFFFFF000000000000000000000087
:103A44000000000000000000000000000000000072
:103A54000000000000000000000000000000000062
:103A6400000000000000000000000F1F3F7FFFFF68
:103A7400FFFFFFFFFFFFE7C7C7878F9F9FFFFFFF82
:103A8400C1C0E0FCFFFFFFFFFFFCFCFCFCFEFEFEF0
:103A9400FCFCF8F8F0E0C0C00000000000000000EA
:103AA4000000000000000000000000000000000012
:103AB4000000000000000000000000000000000002
:103AC4000080C0E0F1FBFFFFFFFFFF7F1F0F0F87A8
:103AD400E7FFFFFF1F1F3FF9F8F8F8F8F8F8FDFFBC
:103AE400FFFFFFFFFFFFFFFF7F3F0F070100000005
:103AF40000000000000000000000000000000000C2
:103B040000000000000000000000000000000000B1
:103B1400000000F0FEFFFFFFFFFFFFFFFFFFFFFEBF
:103B24007E3F3F0F1FFFFFFFFCF0E0F1FFFFFFFFB1
:103B3400FFFCF0010101010101010100000000008E
:103B44000000000000000000000000000000000071
:103B54000000000000000000000000000000000061
:103B64000000000000000003030303030303030138
:103B740001010100000000000000030F1F3F7F7FD0
:103B8400FFFFFFFF7F7F1F03000000000000000015
:103B94000000000000000000000000000000000021
:103BA40000000000000000000000D5052000000017
:103BB4000000DE044B0475042B05A6048404980459
:103BC40000000000FA094B045C085B0857057907FC
:103BD400A2077A0796078A07A9077907C405C305C8
:103BE40040070707C206A5063806D90523040000C6
:103BF4000000A041000080BF0000A040D0022A04C1
:103C0400000000007042000020C10000A040B0028B
:103C14002F0400000000A040000000000000A040AD
:103C2400900235040100000000000000A0400000E4
:103C3400A040700240040100000000C00000F041F8
:103C440000000000700246040100000000C00000F3
:103C54002041000000C070024C040200000020C19A
:103C6400000000C00000704270024F040200000017
:103C7400A0C0000000C000002042700253040200F3
:103C84000000A0C0000000C00000A04270020A3C76
:103C9400212D2D20504152414D455452532044452D
:103CA400425547202D2D3E0048554E4745523A2057
:103CB4000054495245443A200044495254593A2048
:103CC400003C212D2D20454E44202D2D3E000D0A73
:103CD400003B00506F7461746F0043616B65005367
:103CE4007765657400486561642653686F756C0078
:103CF40057442D3430005761746572005456005097
:063D04005334005043009F
:00000001FF
